:020000040800F2
:10000000E81F0020A9030008B5480008B748000809
:10001000BB480008BF480008C348000800000000B3
:10002000000000000000000000000000C7480008B9
:10003000C948000800000000D7230008FD2100087F
:10004000C3030008C3030008C3030008C303000878
:10005000C3030008C3030008714A0008C303000873
:10006000C3030008C3030008C3030008C303000858
:10007000C3030008C3030008B34D0008C30300080E
:10008000C3030008C3030008C3030008C303000838
:10009000C3030008C3030008C3030008C303000828
:1000A000C3030008C3030008C3030008C303000818
:1000B000C3030008C3030008C3030008C303000808
:1000C000C3030008C3030008C3030008C3030008F8
:1000D000C3030008314D0008C3030008C303000830
:1000E000554A0008C3030008C3030008C3030008FF
:1000F000C3030008C3030008C3030008C3030008C8
:10010000C3030008C3030008C3030008C3030008B7
:10011000C3030008C3030008C3030008C3030008A7
:10012000C3030008C3030008C3030008C303000897
:1001300000F002F800F03AF80AA090E8000C8244BF
:100140008344AAF10107DA4501D100F02FF8AFF29C
:10015000090EBAE80F0013F0010F18BFFB1A43F0A5
:10016000010318473050000050500000103A24BFDF
:1001700078C878C1FAD8520724BF30C830C144BF0C
:1001800004680C607047000000230024002500264E
:10019000103A28BF78C1FBD8520728BF30C148BFEA
:1001A0000B6070471FB51FBD10B510BD04F00BFFED
:1001B0001146FFF7F7FF04F0F5FA04F029FF03B446
:1001C000FFF7F2FF03BC04F02DFF00000CB5002088
:1001D000019000906B48006840F4803069490860E5
:1001E00000BF6848006800F4003000900198401C8F
:1001F0000190009818B90198B0F5A06FF1D161484D
:10020000006810F4003F02D00120009001E00020BF
:1002100000900098012842D15B48006840F010002F
:10022000594908600846006820F003000860084645
:10023000006840F002000860524840685149486038
:100240000846406848600846406840F4806048605E
:100250000846406820F47C1048600846406840F436
:10026000E81048600846006840F08070086000BFF1
:100270004448006810F0007FFAD04248406820F0FF
:100280000300404948600846406840F0020048606A
:1002900000BF3C48406800F00C000828F9D10CBDB4
:1002A00010B5FFF793FF10BD10B53648006840F059
:1002B0000100344908600846406834490840314923
:1002C000486008460068324908402E4908600846E0
:1002D000006820F4802008600846406820F4FE0092
:1002E00048604FF41F008860FFF7DAFF4FF00060AE
:1002F0002849086010BD10B5002100200022214BC4
:100300005B6803F00C0121B1042906D0082928D12B
:1003100007E0214B214C236027E01F4B1F4C23603B
:1003200023E0184B5B6803F47010164B5B6803F412
:100330008032022303EB904022B9194B4343174C00
:1003400023600DE00F4B5B6813F4003F04D0144BA7
:100350004343124C236003E00F4B43430F4C236095
:1003600003E00D4B0D4C236000BF00BF054B5B68E5
:10037000C3F303130B4CE15C084B1B68CB40074CE9
:10038000236010BD00100240002002400000FFF872
:10039000FFFFF6FE08ED00E000127A0000000020EA
:1003A00000093D0004000020094880470948004733
:1003B000FEE7FEE7FEE7FEE7FEE7FEE7FEE7FEE715
:1003C000FEE7FEE704480549054A064B7047000072
:1003D000A902000831010008E8190020E81F0020E8
:1003E000E81B0020E81B002031490143314A11601D
:1003F000704770B5002100230F22C4780CB32D4C38
:10040000246804F4E064C4F5E064210AC1F1040343
:10041000CA40447804FA03F1847814402143090166
:10042000254C0678A155047804F01F050124AC4042
:1004300005786D114FF0E02606EB8505C5F8004103
:1004400009E0047804F01F050124AC401B4D067838
:10045000761145F8264070BD194A0A400243154BF3
:100460001B1F1A60704739B1124A121D12680243ED
:10047000104B1B1D1A6006E00E4A121D12688243C3
:100480000C4B1B1D1A607047042808D14FF0E02167
:10049000096941F004014FF0E022116107E04FF0DB
:1004A000E021096921F004014FF0E0221161704759
:1004B0000000FA050CED00E000E400E080E100E05F
:1004C00080FFFF1F01684FF6FE721140016000219E
:1004D000016041608160C1608C49884208D18B49CC
:1004E0000839496841F00F01884A083A51608AE0AA
:1004F00086491431884208D184490839496841F055
:10050000F001824A083A51607DE0804928318842F2
:1005100008D17E490839496841F470617B4A083A3C
:10052000516070E079493C31884208D177490839F7
:10053000496841F47041754A083A516063E0734973
:100540005031884208D171490839496841F4702115
:100550006E4A083A516056E06C496431884208D1CD
:100560006A490839496841F47001684A083A51609B
:1005700049E066497831884208D1644908394968B8
:1005800041F07061614A083A51603CE0604988423C
:1005900006D1011F096841F00F01021F116032E00E
:1005A0005B491431884208D15949091F096841F053
:1005B000F001574A121F116025E055492831884241
:1005C00008D15349091F096841F47061504A121F4C
:1005D000116018E04E493C31884208D14C49091F4E
:1005E000096841F470414A4A121F11600BE0484902
:1005F0005031884207D14649091F096841F47021EA
:10060000434A121F1160704710B50022026847F676
:10061000F0739A430C6A8B6823430C6923434C693B
:1006200023438C692343CC6923434C6A23438C6A5C
:1006300023431A430260CB6843600B6883604B68B6
:10064000C36010BD0021016041608160C160016133
:1006500041618161C161016241628162704721B182
:10066000026842F00102026004E002684FF6FE7385
:100670001A40026070471AB103680B43036002E03E
:1006800003688B43036070474160704701464868C8
:1006900080B2704701460020002211F0805F03D035
:1006A0001B4B083B1A6802E0184B083B1A680A42C9
:1006B00001D0012000E00020704710F0805F03D0DF
:1006C0001349091F086002E0104908394860704763
:1006D00001460020002211F0805F03D00C4B083B44
:1006E0001A6802E0094B083B1A680A4201D001204F
:1006F00000E00020704710F0805F03D00449091F1C
:10070000086002E00149083948607047080002406B
:1007100008040240002044490860091D0860091DC2
:100720000860091D086041483F491431086070475E
:1007300000213D498279002A3AD00A4612680368AE
:100740009A430B461A600A1D126803689A430B1DF0
:100750001A60027911440A6803681A430A60324A2F
:100760000832126803689A432F4B08331A601A1D27
:10077000126803689A432C4B0C331A604279102A92
:100780000ED11A1F126803681A43274B08331A60E8
:100790001A1D126803681A43234B0C331A600DE0CC
:1007A0002149427911440A6803681A430A6005E046
:1007B000027911440A6803689A430A60704700216D
:1007C000016001710C21417100218171704716494E
:1007D000103109680143144A103211607047014614
:1007E0000020114A143212680A4201D0012000E0B0
:1007F000002070470C491431086070470146002002
:100800000022094B1B6803EA0102074B14331B68E3
:100810000B4202D00AB1012000E0002070470249DB
:10082000143108607047000000040140FFFF0F0012
:1008300010B50446CA48844208D10121042000F0C2
:1008400027FB0021042000F023FB46E0C54884423A
:1008500008D10121082000F01BFB0021082000F036
:1008600017FB3AE0C048844208D10121102000F073
:100870000FFB0021102000F00BFB2EE0BB48844250
:1008800008D10121202000F003FB0021202000F0EE
:10089000FFFA22E0B648844208D10121402000F04E
:1008A000F7FA0021402000F0F3FA16E0B148844244
:1008B00008D10121802000F0EBFA0021802000F017
:1008C000E7FA0AE0AC48844207D10121801500F024
:1008D000DFFA0021A01500F0DBFA10BD10B50121F0
:1008E000084600F0D5FA0021012000F0D1FA10BD31
:1008F0002DE9F041024600250026002000230024B7
:10090000002791F803C00CF00F0591F803C01CF00C
:10091000100F03D091F802C04CEA050591F800C011
:10092000BCF1000F31D0146800202BE04FF0010C17
:100930000CFA00F3B1F800C00CEA03069E4220D185
:1009400083004FF00F0C0CFA03F7BC4305FA03FCCD
:100950004CEA040491F803C0BCF1280F06D14FF013
:10096000010C0CFA00FCC2F814C00AE091F803C0B4
:10097000BCF1480F05D14FF0010C0CFA00FCC2F895
:1009800010C0401C0828D1D31460B1F800C0BCF1DD
:10099000FF0F34DD546800202EE000F1080C4FF00A
:1009A000010808FA0CF3B1F800C00CEA03069E42F5
:1009B00021D183004FF00F0C0CFA03F7BC4305FA6A
:1009C00003FC4CEA040491F803C0BCF1280F05D1E4
:1009D00000F1080C08FA0CF8C2F8148091F803C072
:1009E000BCF1480F07D100F1080C4FF0010808FADC
:1009F0000CF8C2F81080401C0828CED35460BDE823
:100A0000F0814FF6FF710180022181700421C170D5
:100A100070470246002093680B4201D0012000E09D
:100A2000002070470146886880B270470246002067
:100A3000D3680B4201D0012000E00020704701463E
:100A4000C86880B2704701617047416170470AB160
:100A5000016100E041617047C16070474FF480322E
:100A60000A438261816182618269826970470246BC
:100A70000020424B18684FF68073184040EA02107D
:100A800008433E4B186070473D49C8617047F0B558
:100A90000A46002300240021002500F00046B6F19C
:100AA000004F02D1354EF16901E0344E7168C0F358
:100AB000034583B200F44016B6F5401F08D121F07B
:100AC00070612E4E766826F070662C4F7E6012E0C4
:100AD00000F48016B6F5801F06D1032606FA05F449
:100AE000A14341F0706106E0460D360103FA06F6B7
:100AF000B14341F0706122B1460D360103FA06F6AA
:100B0000314300F00046B6F1004F02D11B4EF161B7
:100B100001E01A4E7160F0BD30B500228B071C0F4A
:100B20000F2303FA04F2154B08338C1053F82430CA
:100B30009343124C08348D1044F8253023468C1012
:100B400053F824308C07240F00FA04F423430B4C91
:100B500008348D1044F8253030BD0A4908607047CC
:100B600000080140000C0140001001400014014049
:100B700000180140001C014000200140000001401D
:100B800000002042DC002042DD48006840F0010007
:100B9000DB49086008464068DA490840D84948609F
:100BA00008460068D8490840D549086008460068EA
:100BB00020F4802008600846406820F4FE00486069
:100BC0004FF41F0088607047CD49096821F48031D7
:100BD000CB4A11601146096821F480211160B0F5FB
:100BE000803F03D0B0F5802F0ED106E0C4490968DC
:100BF00041F48031C24A116007E0C149096841F4FB
:100C0000A021BF4A116000E000BF00BF704710B5CF
:100C100001460022002300204A11012A02D1B84CCB
:100C2000236806E0022A02D1B54C236A01E0B44CE5
:100C3000636A01F01F02012494401C4201D001208C
:100C400000E0002010BD38B50020009000240025F1
:100C500000BF3120FFF7DBFF05460098401C0090E5
:100C60000098B0F5A06F01D0002DF2D03120FFF731
:100C7000CEFF08B1012400E00024204638BD014623
:100C800000209F4A106820F0F80040EAC100106080
:100C900070479E490860704702460020984B58688C
:100CA00020F47C1042EA01031843954B58607047CA
:100CB00096490866704701460020914A506820F026
:100CC00003000843506070478D48406800F00C00F6
:100CD0007047014600208A4A506820F0F00008431F
:100CE0005060704701460020854A506820F4E0605B
:100CF00008435060704701460020814A506820F444
:100D0000605040EAC1005060704729B17C4A527A75
:100D100002437B4B5A7204E0794A527A8243784B01
:100D20005A7270477A490860704701460020744A39
:100D3000506820F440400843506070470021754AD5
:100D400011706F4A82F82010012802D0042808D1BF
:100D500003E001216F4A117004E005216D4A117012
:100D600000E000BF00BF70476B49086070476449EE
:100D7000096A0143624A1162704767494439086051
:100D8000704730B500210022002400235C4D6D68BF
:100D900005F00C0121B1042905D0082923D105E073
:100DA0005E4D056022E05D4D05601FE0544D6D68AD
:100DB00005F47012524D6D6805F48034022505EB80
:100DC00092421CB9564D554305600BE04C4D6D6881
:100DD00015F4003F03D0524D5543056002E04F4DDE
:100DE0005543056002E04D4D056000BF00BF444D16
:100DF0006D6805F0F00109094A4D6B5C0568DD403E
:100E000045603F4D6D6805F4E061090A454D6B5C36
:100E10004568DD4085603A4D6D6805F46051C90A4A
:100E2000404D6B5C4568DD40C560354D6D6805F42F
:100E30004041890B3C4D6B5CC568B5FBF3F5056122
:100E400030BD29B12E4A526902432D4B5A6104E04C
:100E50002B4A526982432A4B5A61704729B1284A6A
:100E600092690243264B9A6104E0254A92698243C3
:100E7000234B9A61704729B1214AD2690243204B22
:100E8000DA6104E01E4AD26982431D4BDA61704781
:100E900029B11B4AD2680243194BDA6004E0184AB0
:100EA000D2688243164BDA60704729B1144A12693E
:100EB0000243134B1A6104E0114A12698243104B3A
:100EC0001A61704714494039086070470F49C86477
:100ED00070470B49C87170470948406A40F08070FC
:100EE00007494862704701460020054A92680A4255
:100EF00001D0012000E0002070470149887270474E
:100F0000001002400000FFF8FFFFF6FE0000424222
:100F1000D8004242201002408004424200127A006F
:100F200000093D00140000202400002010B50446F4
:100F3000FE48844208D10121C014FFF7A9FF002117
:100F4000E014FFF7A5FFC4E0B4F1804F08D1012100
:100F50000846FFF7AAFF00210120FFF7A6FFB8E02F
:100F6000F348844208D101210220FFF79EFF0021AF
:100F70000220FFF79AFFACE0EE48844208D101213D
:100F80000420FFF792FF00210420FFF78EFFA0E06E
:100F9000E948844208D101210820FFF786FF00219B
:100FA0000820FFF782FF94E0E448844208D1012141
:100FB0001020FFF77AFF00211020FFF776FF88E06E
:100FC000DF48844208D101212020FFF76EFF002175
:100FD0002020FFF76AFF7CE0DA48844208D1012133
:100FE0004014FFF755FF00216014FFF751FF70E038
:100FF000D548844209D10121C804FFF749FF0021E7
:101000004FF40020FFF744FF63E0D048844209D149
:1010100001210805FFF73CFF00214FF48010FFF786
:1010200037FF56E0CA48844209D101214805FFF73D
:101030002FFF00214FF40010FFF72AFF49E0C548B9
:10104000844208D101214020FFF72FFF00214020DA
:10105000FFF72BFF3DE0C048844208D101218020EA
:10106000FFF723FF00218020FFF71FFF31E0BB487F
:10107000844208D101218015FFF717FF0021A01538
:10108000FFF713FF25E0B648844209D10121080487
:10109000FFF7FEFE00214FF48030FFF7F9FE18E065
:1010A000B048844209D101214804FFF7F1FE002134
:1010B0004FF40030FFF7ECFE0BE0AB48844208D160
:1010C00001218804FFF7E4FE00214FF48020FFF7A0
:1010D000DFFE10BD00220288944B98420ED0994B3F
:1010E00098420BD0B0F1804F08D0914B984205D078
:1010F000904B984202D0904B984204D14FF68F7398
:101100001A404B881A438D4B984207D08C4B98421B
:1011100004D04FF6FF431A40CB881A4302808B88D5
:1011200083850B880385814B98420BD0854B984271
:1011300008D08B4B984205D08A4B984202D08A4BFC
:10114000984201D10B7A038601238382704770B5E0
:10115000002400220023058C4FF6FE7635400584DE
:10116000028C8388048B4FF68F752C40B51E2C4063
:101170000D882C43751E2A400D892A434D882A4329
:101180006A4DA8420BD06F4DA84208D0744DA842BA
:1011900005D0744DA84202D0734DA84213D14FF62A
:1011A000F7752A404D892A434FF6FB752A408D88F2
:1011B0002A434FF6FF652B404FF6FF552B408D8994
:1011C0002B43CD892B4383800483CD88858602847D
:1011D00070BD70B5002400220023058C4FF6EF7619
:1011E00035400584028C8388048B48F6FF752C40BB
:1011F0004FF6FF452C400D884FF6FF7606EA052591
:101200002C434FF6DF752A400D8906EA05152A435F
:101210004D8806EA05152A43444DA84202D0494D9F
:10122000A8421DD14FF67F752A404D894FF6FF76B3
:1012300006EA05152A434FF6BF752A408D8806EA4F
:1012400005152A434FF6FF352B404FF2FF752B4013
:101250008D8906EA85052B43CD8906EA85052B4352
:1012600083800483CD880587028470BD70B5002417
:1012700000220023058C4FF6FF6635400584028C62
:101280008388848B4FF68F752C404FF6FC752C406D
:101290000D882C434FF6FF552A400D894FF6FF76F7
:1012A00006EA05252A434D8806EA05252A431F4DEF
:1012B000A84202D0234DA8421DD14FF2FF752A400B
:1012C0004D894FF6FF7606EA05252A434FF6FF358E
:1012D0002A408D8806EA05252A434EF6FF752B40E5
:1012E0004DF6FF752B408D8906EA05152B43CD89F8
:1012F00006EA05152B4383808483CD888587028485
:1013000070BD70B5002200230024058C4EF6FF76D8
:1013100035400584038C8488828B48F6FF752A400B
:101320004FF6FF452A400D8820E00000002C0140C8
:101330000004004000080040000C00400010004085
:101340000014004000340140004C014000500140B6
:101350000054014000180040001C004000200040E4
:101360000040014000440140004801404FF6FF7634
:1013700006EA05252A434DF6FF752B400D8906EA3E
:1013800005352B434D8806EA05352B43FA4DA84217
:1013900002D0FA4DA84208D14BF6FF752C408D893A
:1013A0004FF6FF7606EA85152C4384808283CD882C
:1013B000A0F84050038470BD828B4FF2FF331A4077
:1013C0008283828B4FF6FF7303EA01231A438283E1
:1013D0007047F0B50C461546002200210026078C08
:1013E0004EF6FF7C07EA0C070784828B018C4FF6D0
:1013F000FF7707EA043640F6FF473A404FF6FF779B
:1014000007EA05273A434FF6FF7707EA03373A43DF
:10141000D94FB8420ED0D94FB8420BD0B0F1804F5F
:1014200008D0D74FB84205D0D64FB84202D0D64FD9
:10143000B84206D14DF6FF77394046F4805739431C
:1014400005E047F6FF57394044F48057394382831B
:101450000184F0BD828B4FF6F3731A408283828B36
:101460000A4382837047F0B50C46154600220021DE
:101470000026078C4FF6FF6C07EA0C070784828B67
:10148000018C4FF6FF7707EA04264FF60C773A40B7
:101490004FF6FF7707EA03172F433A43B64FB84298
:1014A0000ED0B64FB8420BD0B0F1804F08D0B44F39
:1014B000B84205D0B34FB84202D0B34FB84206D1BC
:1014C0004FF6FF57394046F48077394305E04FF235
:1014D000FF57394044F48077394382830184F0BD5B
:1014E000028B4FF2FF331A400283028B4FF6FF73D9
:1014F00003EA01231A4302837047F0B50C461546F0
:10150000002200210026078C4FF6EF7C07EA0C072B
:101510000784028B018C4FF6FF7707EA041640F62A
:10152000FF473A404FF6FF7707EA03373A434FF653
:10153000FF7707EA05273A438F4FB8420ED08F4F07
:10154000B8420BD0B0F1804F08D08D4FB84205D0D3
:101550008C4FB84202D08C4FB84206D14FF6DF779D
:10156000394046F01007394305E04FF65F773940C0
:1015700044F01007394302830184F0BD028B4FF61B
:10158000F3731A400283028B0A4302837047F0B55B
:101590000C46154600220021068C4FF6FE773E4091
:1015A0000684028B018C4FF60C7632407E1C06EAD4
:1015B00003162E433243704EB0420ED06F4EB042EF
:1015C0000BD0B0F1804F08D06D4EB04205D06D4EBB
:1015D000B04202D06C4EB04206D14FF6FD7631409B
:1015E00044F00106314305E04FF6F576314044F012
:1015F0000106314302830184F0BD70B505460C46F7
:101600005D4885420ED05D4885420BD0B5F1804FD4
:1016100008D05B48854205D05A48854202D05A48D6
:10162000854200D100E000BF208850B92389A288FC
:1016300061882846FFF7ABFFE1882846FFF79EFF49
:1016400025E0208804280AD12389A28861882846B9
:10165000FFF753FFE1882846FFF742FF17E0208895
:1016600008280AD12389A28861882846FFF7FBFE53
:10167000E1882846FFF7EEFE09E02389A288618809
:101680002846FFF7A6FEE1882846FFF795FE70BDC5
:101690002DE9F04105460C4600260127608808B96F
:1016A000022600E00026A088012801D1022700E0E0
:1016B00001272088A0B92389A28861882846FFF7DE
:1016C00066FFE1882846FFF759FF23893A463146ED
:1016D0002846FFF712FFE1882846FFF701FF13E0D5
:1016E0002389A28861882846FFF707FFE1882846FA
:1016F000FFF7F6FE23893A4631462846FFF747FFB3
:10170000E1882846FFF73AFFBDE8F0810A884B8858
:101710001A438B881A43CB881A430B891A434B8987
:101720001A438B891A43A0F8442070474FF6FF7183
:10173000818000210180C1804180017270470021B9
:10174000018041808180C180018141818181C1818D
:101750007047002101804180012181800021C180EA
:10176000018170470021018041808180C180018119
:101770004181818170470000002C0140003401400C
:101780000004004000080040000C004021B1028825
:1017900042F00102028004E002884FF6FE731A4014
:1017A0000280704731B1B0F8442042F40042A0F802
:1017B000442005E0B0F84420C2F30E02A0F8442013
:1017C00070471AB183890B43838102E083898B437D
:1017D000838170478182704741EA0203A0F8483054
:1017E00070471AB183890B43838102E083898B435D
:1017F0008381704701894FF6F8721140018170476B
:101800000A46002101894FF68F7319401143018167
:10181000704730B504460D4629462046FFF7F0FFD5
:10182000208940F00700208130BD2DE9F0410446B9
:101830000D4616461F46602D06D13B460122314615
:101840002046FFF75AFE05E03B460122314620467E
:10185000FFF79DFE29462046FFF7D2FF208940F082
:1018600007002081BDE8F08130B50C4600210189D8
:10187000C9B24FF6FF7505EA0325154325432943F1
:10188000018130BD2DE9F04105460E4617469846C8
:10189000002443463A4631462846FFF7E5FF2C89A7
:1018A0004FF6F870044044F007044FF68F70044080
:1018B00044F070042C81BDE8F081F0B504460D467B
:1018C00016461F463B46324629462046FFF7CCFFC8
:1018D000208940F480402081F0BD018582827047DC
:1018E0000A46002101884FF68F7319401143018089
:1018F0007047F0B50C4615461E4600210022002315
:101900000189028B038C4FF6F877394021434FF65B
:10191000FC473A4040F201173A434FF6DD773B402F
:101920004FF6FF7707EA06172F433B4301810283F7
:101930000384F0BD0A460021018B4FF68F731940D6
:101940001143018370470A460021018B48F6FF735B
:1019500019404FF6FF7303EA0223194301837047CE
:101960000A460021818B4FF68F7319401143818302
:1019700070470A460021818B48F6FF7319404FF6E5
:10198000FF7303EA022319438183704721B1028860
:1019900042F08002028004E002884FF67F731A4012
:1019A0000280704721B1828842F00402828004E004
:1019B00082884FF6FB731A408280704721B182887B
:1019C00042F00802828004E082884FF6F7731A40E2
:1019D0008280704721B1828842F00102828004E057
:1019E00082884FF6FE731A40828070470A460021B3
:1019F000018B4FF6F77319401143018370470A4674
:101A00000021018B4FF2FF7319404FF6FF7303EA79
:101A100002231943018370470A460021818B4FF648
:101A2000F77319401143818370470A460021818B67
:101A30004FF2FF7319404FF6FF7303EA0223194375
:101A4000818370470A460021018B4FF6FB731940D2
:101A50001143018370470A460021018B4FF6FF3383
:101A600019404FF6FF7303EA0223194301837047BD
:101A70000A460021818B4FF6FB7319401143818385
:101A800070470A460021818B4FF6FF3319404FF60D
:101A9000FF7303EA02231943818370470A4600213A
:101AA000018B4FF67F7319401143018370470A463B
:101AB0000021018BC1F30E014FF6FF7303EA0223ED
:101AC0001943018370470A460021818B4FF67F73CB
:101AD00019401143818370470A460021818BC1F36D
:101AE0000E014FF6FF7303EA022319438183704707
:101AF0000A460021018C4FF6FD7319401143018401
:101B000070470A460021018C4FF6F77319401143C4
:101B1000018470470A460021018C4FF6DF7319409B
:101B20004FF6FF7303EA02131943018470470A4614
:101B30000021018C4FF67F7319404FF6FF7303EAC3
:101B400002131943018470470A460021018C4FF6A5
:101B5000FF5319404FF6FF7303EA02231943018430
:101B600070470A460021018C4FF2FF7319404FF66F
:101B7000FF7303EA02231943018470470A460021D8
:101B8000018C4DF6FF7319404FF6FF7303EA0233E1
:101B900019430184704730B5002301248C40A3B25F
:101BA000048C9C430484048C02FA01F5ADB22C43EE
:101BB000048430BD30B5002304248C40A3B2048CCF
:101BC0009C430484048C02FA01F5ADB22C430484D6
:101BD00030BD70B50346002000241846183001259A
:101BE0008D40ACB21D8CA5431D8409B1082909D1D3
:101BF00000EB6100056825F0700505600568154378
:101C000005600EE00D1FC5F34E052844056825F458
:101C1000E045056005684FF6FF7606EA0226354383
:101C2000056070BD21B1028842F00202028004E02A
:101C300002884FF6FD731A400280704721B1028876
:101C400042F00402028004E002884FF6FB731A405F
:101C50000280704721B1828842F08002828004E0D5
:101C600082884FF67F731A408280704702884FF651
:101C7000F7731A40028002880A4302807047828804
:101C80004FF68F731A40828082880A4382807047A1
:101C900002894FF6F8731A40028102890A430281D1
:101CA000704702894FF67F731A40028102890A4306
:101CB00002817047818470478185704781867047B3
:101CC0000187704781877047A0F8401070470288ED
:101CD0004FF6FF431A40028002880A430280704791
:101CE0000146888E70470146088F70470146888FED
:101CF00070470146B1F8400070470146888C704734
:101D00000146088D704702460020138A0B4201D01D
:101D1000012000E000207047CA430282704730B5BE
:101D20000246002000230024158A05EA0103958954
:101D300005EA010413B10CB1012000E0002030BD20
:101D4000CA4302827047000010B50446FB48844233
:101D500009D101218803FFF79BF800214FF480404F
:101D6000FFF796F832E0F648844209D10121480491
:101D7000FFF79BF800214FF40030FFF796F825E0BD
:101D8000F048844209D101218804FFF78EF8002130
:101D90004FF48020FFF789F818E0EB48844209D11E
:101DA0000121C804FFF781F800214FF40020FFF75C
:101DB0007CF80BE0E548844208D101210805FFF7D3
:101DC00074F800214FF48010FFF76FF810BD2DE973
:101DD000F04786B005460E460024A24600BFA14645
:101DE0000027B08900B100BF2F462C8A4CF6FF7047
:101DF0000440F08804432C82AC894EF6F310044072
:101E0000B08831890843718908430443AC81AC8AA6
:101E10004FF6FF400440B0890443AC8201A8FEF7AE
:101E2000B0FFC648874202D1DDF810A001E0DDF81E
:101E30000CA0A88910F4004F08D00AEBCA0000EBF0
:101E40000A1031684900B0FBF1F807E00AEBCA005C
:101E500000EB0A1031688900B0FBF1F86420B8FB90
:101E6000F0F004012009642101FB1089A88910F415
:101E7000004F08D0322000EBC900B0FBF1F000F0B9
:101E80000700044308E0322000EB09106421B0FB96
:101E9000F1F000F00F0004432C8106B0BDE8F0879C
:101EA0004FF41651016000218180C18001810C2115
:101EB000418100218181704710B502460020108ABF
:101EC0004FF2FF0318400B884C8823438C88234330
:101ED000CC8823431843108210BD0021018041802B
:101EE0008180C180704721B1828942F40052828191
:101EF00004E082894DF6FF731A4082817047F0B585
:101F000003460024002600250020A1F510676A3F43
:101F100000D100BF1846C1F3421401F01F0601278B
:101F200007FA06F5012C01D10C3004E0022C01D196
:101F3000103000E014301AB107682F43076002E048
:101F40000768AF430760F0BD1AB1838A0B438382F1
:101F500002E0838A8B4383827047028A4FF6F073D4
:101F60001A400282028A0A430282704782894FF233
:101F7000FF731A40828182890A438281704721B1AE
:101F8000828942F00202828104E082894FF6FD7369
:101F90001A4082817047028A4FF6DF731A4002822C
:101FA000028A0A430282704721B1028A42F48042C7
:101FB000028204E0028A4BF6FF731A4002827047E5
:101FC000C1F308028280704701468888C0F3080088
:101FD0007047818941F0010181817047028BD2B243
:101FE0000283028B42EA012202837047028B02F4D1
:101FF0007F420283028B0A430283704721B1828AA7
:1020000042F02002828204E0828A4FF6DF731A4097
:102010008282704721B1828A42F01002828204E0FB
:10202000828A4FF6EF731A408282704721B1828A0A
:1020300042F00802828204E0828A4FF6F7731A4067
:102040008282704721B1828942F40042828103E09A
:102050008289C2F30E028281704721B1828A42F4E2
:102060000062828204E0828A4FF2FF731A40828209
:102070007047828A4FF6FB731A408282828A0A4333
:102080008282704721B1828A42F00202828204E099
:10209000828A4FF6FD731A40828270470246002002
:1020A000B1F5007F00D100BF13880B4201D00120A1
:1020B00000E00020704701F40072B2F5007F00D10B
:1020C00000BFCA430280704770B502460024002357
:1020D00000250020A1F510666A3E00D100BFC1F3C3
:1020E000421501F01F03012606FA03F3012D02D168
:1020F0009689334006E0022D02D1168A334001E072
:10210000968A33400C12012606FA04F416883440ED
:1021100013B10CB1012000E0002070BD10B5002209
:102120000023A1F510646A3C00D100BF0A1201240B
:102130009440A3B2DC43048010BD0000003801408D
:102140000044004000480040004C00400050004067
:1021500070477047704770477047704770B50446C6
:1021600010464FF080750560051F28462C606FF003
:102170000106051F28462E604FF01236051F28461F
:102180002E604FF00336051F28462E604FF00236B2
:10219000051F28462E607610051F28462E60051F55
:1021A000284629604FF01136051F28462E604FF053
:1021B0001036051F28462E604FF00936051F2846A9
:1021C0002E604FF00836051F28462E604FF0073668
:1021D000051F28462E604FF00636051F28462E6044
:1021E0004FF00536051F28462E604FF00436051FB8
:1021F00028462E6070BD70477047704710B500F0DC
:10220000C9F804461A480078401C1949087020464D
:1022100000F0C4F800F0A5FD00F0ABFC10BD30B537
:10222000144800684FF47A72B0FBF2F1481EB0F126
:10223000807F00D31BE0481E4FF0E0225061501712
:102240000F22002807DA13071D0E0B4B00F00F04B6
:10225000241F1D5503E013071C0E084B1C5400BF20
:1022600000204FF0E02290610720106100BF30BDD8
:10227000410000200000002018ED00E000E400E034
:10228000174818481848194819481A481A481B4846
:102290001B481C481C481D481D481E481E481F4816
:1022A0001F482048204821482148224822482348E6
:1022B00023482448244825482548264826482748B6
:1022C000274828482848294829482A482A482B4886
:1022D0002B482C482C482D482D4800BF7047000043
:1022E00034500008385000083C5000083E500008A8
:1022F0004050000842500008445000084650000872
:10230000485000084A5000084C5000084E50000841
:102310005050000852500008545000085650000811
:10232000585000085A5000085C5000085E500008E1
:1023300060500008625000086450000866500008B1
:10234000685000086A5000086C5000086E50000881
:102350007050000872500008745000087650000851
:10236000785000087A5000087C5000087E50000821
:1023700080500008825000088450000886500008F1
:10238000885000088A5000088C5000088E500008C1
:1023900090500008EFF3108072B6704780F31088F9
:1023A00070471D484FF0FF010170002080F309883D
:1023B0001A48012101701A484FF08051016062B63D
:1023C000FEE717484FF080510160704714484FF006
:1023D00080510160704772B6EFF3098028B1203850
:1023E00080E8F00F0F490968086000B50E48804783
:1023F0005DF804EB0D480E490A78027009480D4952
:102400000A680260106890E8F00F203080F30988B5
:102410004EF0040E62B6704722ED00E04A00002044
:1024200004ED00E050000020F721000843000020E8
:1024300044000020580000200246002005E011F86A
:10244000013B02F8013B431CD8B20B78002BF6D1BC
:10245000137070472DE9F04105460E4614460027DB
:10246000F7480078002804DD112020700020BDE826
:10247000F0812878012808D0022807D0032802D04C
:10248000042804D100E000BF00BF00BF03E001202A
:1024900020700020EBE700BFFFF77CFF074605F147
:1024A0000F013046FFF7C8FF80463846FFF776FF3A
:1024B000002020704046DAE70146002002E0491C77
:1024C000421CD0B20A78002AF9D170472DE9F041B8
:1024D00005460F4614464FF00008D94800780028FA
:1024E00003DD12202070BDE8F0812878012808D093
:1024F000022807D0032802D0042804D100E000BF3E
:1025000000BF00BF02E001202070ECE700BFFFF732
:1025100041FF80463846FFF7CFFF06460F2E05DD08
:102520004046FFF73BFF0B202070DCE7394605F102
:102530000F00FFF781FF4046FFF730FF00202070BB
:1025400000BFD0E7F0B5024612F8344F95785678C0
:10255000A2F134020B4618680FE000F10B073F5D53
:10256000B74300F10B0C0CF8047067463F5D17B9D8
:10257000877AAF4387721B1D18680028EDD1F0BD24
:10258000B049B14A1278885CB049095CAD4A515CE7
:1025900001EBC001AE4A1170704710B50024FFF77F
:1025A000F9FE0446A6480078F0B9AA480078D8B9E0
:1025B000FFF7E6FFA6480078A7490978884213D0BC
:1025C000A648A349097850F82100A54908600846A3
:1025D0000068806B401C09688863A2480068401C42
:1025E000A0490860FFF7EDFE2046FFF7D7FE10BDBB
:1025F00070B5014600249C4D2D68EC619A4C24680E
:1026000021620B4618681BE0974C246894F83450FC
:1026100000F10B04645D944D2D6895F835502C4302
:10262000914D2D6895F8346000F10B05AC55847A16
:102630008D4D2D6895F836502C4384721B1D1868FB
:102640000028E1D1884C246894F834207F4CA45CA5
:10265000854D2D6895F83550AC437C4DAC542C46D7
:10266000A45C44B9804C246894F83650764C2478A5
:10267000AC43754D2C7070BD2DE9FF4F83B0804683
:102680000E461546109F002001903060C146D9F8D3
:10269000004018E02078012807D0032804D004283F
:1026A00005D0052802D103E008E007E000BF00BF25
:1026B00001203870002007B0BDE8F08F00BF09F19D
:1026C0000409D9F80040002CE4D15D4800780028C6
:1026D00003DD022038700020EDE75E480078002816
:1026E00003DD0D2038700020E5E7FFF753FE019071
:1026F0000020029082468346C146D9F800403DE062
:102700002078012819D0032804D0042827D00528D0
:1027100024D125E0208900280CDD2089401E20815D
:1027200010C601200290002001C50AF101001FFA25
:1027300080FA01E04BF0010B1BE0606858B1606863
:1027400001C50020606010C6012002900AF101005E
:102750001FFA80FA01E04BF0020B0AE000BF00BF55
:102760000198FFF71BFE00203060012038705046B2
:10277000A1E700BF09F10409D9F80040002CBFD13E
:102780000298012808D1002030600198FFF706FE6A
:102790000020387050468EE73348006890F83000CB
:1027A0004BF0800108433049096881F8300000206F
:1027B0002D49096881F831002B4906980968C885B8
:1027C0004046FFF715FF0198FFF7E8FDFFF7E5FE2C
:1027D000FFF7E0FD01902448006890F8310020B137
:1027E00001281BD0022818D100E000BF1E48006855
:1027F000C4693CB110C6002030600AF101001FFA24
:1028000080FA09E001201849096881F83100414641
:1028100015480068FFF796FE06E000BF41461248E3
:102820000068FFF78FFE00BF00BF0F48006890F8F8
:102830003100D8B101283FD002283CD136E0000059
:102840004100002092500008450000204600002072
:1028500044000020420000204300002050060020D9
:102860005800002028000020500000202078062872
:102870000DD2DFE800F00C0607030D0E002001C5A5
:1028800010E000BFF8480068406A01C50AE000BFD8
:1028900000BF0198FFF782FD0020306001203870F2
:1028A000504608E700BF002038700AE0002001C54C
:1028B0000E20387005E000BF002001C50A203870E6
:1028C00000BF00BF0020E849096881F83000E649F0
:1028D000096881F83100E4490968C861E24909687A
:1028E0000862E149096848620198FFF757FD5046C0
:1028F000E1E67CB5002514E06946284601F020FD9C
:10290000064666B9D94850F8254044B1012C06D096
:10291000D4E9020100EB810060640198A064681CA6
:10292000C5B21F2DE8DD7CBD002402E0C82001F007
:10293000CDFDCF4800780028F8D0CE48006864214B
:10294000B0FBF1F0CB4908600846006828B90020C8
:10295000C9490870FF2001F035FD00BFFFF71AFDDF
:102960000446C6480068C64908600020C34908609C
:102970002046FFF713FDC2480068BE490968B0FB56
:10298000F1F0C0F16400BC490870FFF7E6FBFFF707
:10299000B0FF642001F09AFDE0E700B587B00320A6
:1029A00000218022B74BCDE90132CDE903104FF66B
:1029B000FE701E23B44A0090AFF2930001F0BAFA01
:1029C00006AAB2A11E2001F029FC07B000BD002418
:1029D00000BFFFF7DFFC0446A8480068401CA74979
:1029E00008602046FFF7DAFCFFF7B6FBF1E700B519
:1029F00087B0032000218022A84BCDE90132CDE928
:102A000003104FF6FF701F23A54A0090AFF241005C
:102A100001F090FA06AAA3A11F2001F0FFFB07B066
:102A200000BD04E0002200F8012B4A1E91B20029EB
:102A3000F8DC704730B54FF4A0719E48FFF7F1FF06
:102A40009C4B03F1200500240AE0002018705D6013
:102A50003F20D8730021197420332035601C84B2C4
:102A6000092CF2DB0020187058603F20D873002139
:102A7000197490489049086030BD30B54FF4FD613D
:102A80008E48FFF7CEFF80217848FFF7CAFF8B4BB7
:102A900003F15C0500240AE05D613F2083F84C00EF
:102AA00000214D20C1545C335C35601CC4B2152C30
:102AB000F2D3002058613F2083F84C0000214D20C4
:102AC000C15400207E4908607C487E49086030BDC2
:102AD00000227D4B1A707D49002004E0002201F89D
:102AE000012B421CD0B20428F8DB0022784B1A706C
:102AF000784B1A70784B1A605B4B1A607047002055
:102B000076490860764908707649087076490870F9
:102B10007649087076490860584908605849086045
:102B20005449086052490870704710B5FFF710FB10
:102B3000FFF7E5FFFFF7CCFFFFF79FFFFFF77AFFF7
:102B400000F0D2FEFFF753FFFFF727FFFFF701FB6F
:102B5000FFF796FB10BD65480078012808D1604852
:102B60000078FF2804D25E480078401C5C49087059
:102B7000704710B500245D480078012830D1FFF778
:102B800009FC044656480078002804DD54480078C3
:102B9000401E5349087052480078F0B951480078F7
:102BA000D8B9FFF7EDFC4B480078494909788842CD
:102BB00013D02E484749097850F82100464908604B
:102BC00008460068806B401C0968886348480068B4
:102BD000401C47490860FFF7F9FB2046FFF7DEFB82
:102BE00010BD10B5002441480078012811D1FFF72D
:102BF000D1FB04463A48007840B93A480078FF28AB
:102C000004D238480078401C364908702046FFF747
:102C1000C5FB10BD10B5002434480078012822D12E
:102C2000FFF7B8FB04462F480078002818DD2D4830
:102C30000078401E2B4908700846007860B9284883
:102C4000007828B92046FFF7A9FBFFF7A6FC0AE0A9
:102C50002046FFF7A3FB06E02046FFF79FFB02E0BC
:102C60002046FFF79BFB10BD5000002050060020BF
:102C70004000002038000020340000204C000020DC
:102C80003C000020500200204C04002075432F4FD0
:102C9000532D4949205374617400000050040020F2
:102CA0004C06002075432F4F532D49492049646C31
:102CB00065000000840000202C000020D0060020C9
:102CC0005C00002054000020450000204600002049
:102CD0004300002044000020580000206400002031
:102CE00041000020420000204B0000204A0000204C
:102CF0002800002010B5EE48007890B9FFF740FC9E
:102D0000EC480078EC490870EC48EA49097850F83A
:102D10002100EB49086008460068EA490860FFF7AF
:102D200040FB10BD10B50024022001F0CFFBFFF7DF
:102D300031FB04460020E44908602046FFF72EFBE3
:102D4000642001F0C3FBFFF725FB0446DE48006862
:102D5000DE4908600120DE4908702046FFF71EFBAF
:102D600010BD70B50026FFF748FAFFF713FB0646C3
:102D7000D8480068401CD74908603046FFF70EFB72
:102D8000CB480078012858D1D348007820B10128D9
:102D900004D0022809D103E001250BE0002509E059
:102DA00001250120CC49087004E001250020CA4912
:102DB000087000BF00BF05B970BDC848046838E09E
:102DC000FFF7E8FA0646E08D78B3E08D401E000478
:102DD000000CE08529D194F8300010F0370F09D0AD
:102DE00014F8300F20F03700207001206070A4F13B
:102DF000300402E0002084F8310094F8300010F034
:102E0000080F12D104F13404A078B549097840EADA
:102E10000100B34908702078B249085C617840EA43
:102E2000010014F83419AF4A505464693046FFF772
:102E3000B5FA94F832001F28C2D100BFBCE74FF4A6
:102E40008F707047704710B590F8342001F10B0374
:102E50009B5C90F83540A34301F10B04A354234637
:102E60009B5C23B98B7A90F83640A3438B7210BDDC
:102E70002DE9F04F05460F4690469946A87A9A49A3
:102E80000E5C05F10B00805D11F800B00BEBC60085
:102E900000F0FF0A894850F82A40002004F1240479
:102EA00060812760207B20EA0800207384F80D9061
:102EB000207BA4F1240410F0080F0DD194F8360003
:102EC000874909780843864908708648805D94F8E8
:102ED000351008438349885529462046FFF7B3FF3C
:102EE000206A20B12046216AFFF72CFBE56150469D
:102EF000BDE8F08F10B5734A1268D061714A12684C
:102F000092F8343000F10B02D25C6E4B1B6893F8E0
:102F100035301A436B4B1B6893F8344000F10B03B8
:102F20001A55827A674B1B6893F836301A438272BF
:102F3000644A126892F834106A4A525C614B1B680A
:102F400093F835309A43674B5A541A46525C42B94B
:102F50005C4A126892F83630614A12789A43604BA4
:102F60001A7010BD0023837200F10B01002204E0EF
:102F7000002301F8013B531CDAB2042AF8DB704746
:102F800005E011F8013B00F8013B531E9AB2002AFC
:102F9000F7DC70472DE9F84F05460E461746984670
:102FA000DDE90BABDDF8289000200090FFF7F2F987
:102FB00000904E480468002C74D004F1180454F8B2
:102FC000040C4A4908600098FFF7E8F944F8186CC7
:102FD000A576002020766076E08244F814AC44F8B0
:102FE0000C9C44F8107C24F808BC24F8068CE0778C
:102FF000E810207705F00700E076217F0120884067
:10300000A077E17E01208840607700206060A060AA
:103010002061E0602062A0626062E06220633F2085
:1030200084F83400A4F118044FF000014FF04D0073
:1030300001552046FFF7E0F82046FFF78BF8FFF731
:10304000A9F900901D4840F82540244800686061B7
:103050000020A0612148006810B120480068846108
:103060001E48046004F13404A0781D49097840EA40
:1030700001001B49087020781A49085C617840EA11
:10308000010014F83419174A50541948007800F117
:103090000100174908700098FFF780F90020BDE88B
:1030A000F88FFFE70098FFF779F94220F7E7000073
:1030B0004A00002044000020430000205006002069
:1030C00058000020500000204C0000203800002054
:1030D0004000002064000020600000205C00002010
:1030E00045000020460000209250000854000020B7
:1030F0004B0000202DE9F05F04460F4691461E4626
:103100004FF0000B2078052804D0012030700020FB
:10311000BDE8F09F09F0800ABAF1000F04D029F051
:1031200080094FF0010801E04FF0000800203070E6
:10313000FFF730F98346B9F1000F2CD0B9F1010F38
:103140003BD0B9F1020F03D0B9F1030F46D111E022
:10315000208900EA0705BD4206D1B8F1010F05D16B
:103160002089A843208101E0702030705846FFF785
:1031700015F93AE0208900EA070535B1B8F1010FE9
:1031800005D12089A843208101E070203070584685
:10319000FFF704F929E0208927EA0005BD4206D19E
:1031A000B8F1010F05D120892843208101E070206A
:1031B00030705846FFF7F2F817E0208927EA00053B
:1031C00035B1B8F1010F05D120892843208101E0F4
:1031D000702030705846FFF7E1F806E05846FFF7D8
:1031E000DDF800256F20307000BF00BF28468FE754
:1031F0002DE9F04106460D460027FB4800780028DF
:1032000004DD102028700020BDE8F081FFF7C2F82F
:103210000746F648046894B100684068F3490860BE
:10322000052020702681002060603F20A0720021D0
:10323000E1723846FFF7B2F80020287004E0384603
:10324000FFF7ACF8722028702046DDE730B5014664
:103250004A6808682AB9CC68606028B100254560D2
:1032600002E0106000B142608B6800259D6230BDB5
:10327000F0B506460F46B468002004F12C046080C7
:103280002780207920F0200020714FF0000060712D
:103290002079A4F12C04A8B904F13404A078D4490D
:1032A000097840EA0100D24908702078D149085CC9
:1032B000617840EA010014F83419CE4A50544FF0B6
:1032C000010500E000253046FFF7C0FF2846F0BDAD
:1032D0002DE9F0470446894615464FF0000AC248DA
:1032E0000078002804DD0F2028702046BDE8F08714
:1032F0002078052803D0012028702046F6E7FFF744
:1033000049F88246606808B1012700E00027B9F15A
:10331000000F03D0B9F1010F40D11BE09FB93F204E
:10332000A0720021E17200202070B0480068606047
:1033300000202081AD4804605046FFF72FF80020A0
:103340002870002605E05046FFF728F8492028702D
:1033500026462AE0D4F8048005E000214046FFF725
:1033600087FFD8F80080B8F1000FF6D13F20A07297
:103370000021E172002020709C48006860600020FD
:1033800020819A4804605046FFF708F8012F01D1C8
:10339000FFF703F900202870002606E05046FEF7EC
:1033A000FDFF07202870264600BF00BF30469DE77E
:1033B0002DE9F04105460E46144600278A4800785C
:1033C000002804DD112020700020BDE8F081FEF708
:1033D000E1FF07462878052806D03846FEF7DEFFCD
:1033E000012020700020F0E705F10A013046FFF7C8
:1033F00023F880463846FEF7D1FF00202070404673
:10340000E3E72DE9F04105460F4614464FF000086A
:1034100075480078002803DD12202070BDE8F08197
:10342000FEF7B8FF80462878052805D04046FEF70D
:10343000B5FF01202070F1E73846FFF73DF806465A
:103440000F2E05DD4046FEF7A9FF73202070E5E74B
:10345000394605F10A00FEF7EFFF4046FEF79EFFF2
:103460000020207000BFD9E7F0B51446059E624FDA
:103470003F6897F8307047F02007DFF87CC1DCF830
:1034800000C08CF830700027DFF86CC1DCF800C099
:103490008CF83170584F3F68FE85574F3F68B962CE
:1034A0000C828B74544F3F688F6047680F60002711
:1034B0004F60C860456805B1696041604E4F3F6824
:1034C00097F834204B4FBF5CDFF82CC1DCF800C00C
:1034D0009CF835C027EA0C07DFF818C10CF8027019
:1034E0006746BF5C5FB9444F3F6897F836C0404FAE
:1034F0003F7827EA0C07DFF8F8C08CF80070F0BDC1
:103500002DE9F04F89B005460F4691469A46129E26
:103510000020029034480078002805DD0220307039
:10352000002009B0BDE8F08F34480078002803DDA2
:103530000D2030700020F4E72878052803D0012002
:1035400030700020EDE709F0800BBBF1000F04D0D4
:1035500029F080094FF0010801E04FF00008FEF764
:1035600019FF0290B9F1000F56D0B9F1010F76D0D2
:10357000B9F1020F03D0B9F1030F6FD120E0288910
:1035800000EA0704BC420FD1B8F1010F02D128892B
:10359000A04328811848006884850298FEF7FEFE43
:1035A000002030702046BCE74B463A4604A9284626
:1035B000CDF800A0FFF758FF0298FEF7EFFE76E087
:1035C000288900EA0704DCB1B8F1010F02D128898B
:1035D000A04328810848006884850298FEF7DEFE33
:1035E0000020307020469CE7410000203000002081
:1035F000450000204600002050000020420000202E
:103600004B463A4604A92846CDF800A0FFF72CFF08
:103610000298FEF7C3FE4AE0288927EA0004BC426C
:103620000FD1B8F1010F02D1288920432881BF486A
:10363000006884850298FEF7B1FE002030702046B5
:103640006FE74B463A4604A92846CDF800A0FFF79D
:103650000BFF0298FEF7A2FE29E000E01FE0288998
:1036600027EA00047CB1B8F1010F02D12889204378
:103670002881AE48006884850298FEF78FFE0020FE
:10368000307020464DE74B463A4604A92846CDF80F
:1036900000A0FFF7E9FE0298FEF780FE07E002981F
:1036A000FEF77CFE00246F203070204639E700BF13
:1036B000FEF773FFFEF76EFE02909C48006890F8DC
:1036C000310020B39948006890F831000390002041
:1036D0009649096881F8310004A8FFF7B7FD00207A
:1036E0009249096881F830000298FEF757FE0024DD
:1036F0000398012805D0022802D10E20307003E083
:1037000000BF0A20307000BF00BF204609E787488D
:103710000068848DB8F1010F1ED1B9F1000F0ED0F1
:10372000B9F1010F0CD0B9F1020F03D0B9F1030FB9
:103730000AD100E000BF2889A04328810BE000BF28
:1037400028892043288106E00298FEF727FE6F2093
:1037500030700020E5E600BF0298FEF71FFE002053
:1037600030702046DDE670B50025FEF713FE0546F5
:103770006E480068848D2846FEF710FE204670BD16
:103780002DE9FC5F0446894692461E4600200090C3
:103790002078052804D0012030700020BDE8FC9F6F
:1037A000FEF7F8FD0090BAF1000F03D0BAF1010F57
:1037B0000AD104E0208920EA090020810BE0208959
:1037C00040EA0900208106E00098FEF7E7FD71203D
:1037D00030700020E2E700BF4FF0000B656855E055
:1037E000A87C40B3012838D0022802D0032844D155
:1037F00011E02089298A00EA0107288AB84209D104
:1038000039462846FFF734FD8046B8F1010F01D153
:103810004FF0010B38E02089298A00EA01074FB1F7
:1038200039462846FFF724FD8046B8F1010F01D143
:103830004FF0010B28E0288A218920EA0107288A15
:10384000B84209D139462846FFF712FD8046B8F143
:10385000010F01D14FF0010B16E0288A218920EADF
:1038600001074FB139462846FFF702FD8046B8F1FF
:10387000010F01D14FF0010B06E00098FEF78EFD1D
:103880006F203070002089E700BF2D68002DA7D180
:103890000098FEF783FDBBF1010F01D1FEF77DFE1D
:1038A000FEF778FD0090208901900098FEF776FDE4
:1038B00000203070019871E72DE9F04104460D4673
:1038C00000272078052804D0012028700020BDE8BA
:1038D000F081FEF75FFD074626893846FEF75EFD5C
:1038E000002028703046F2E770B58C211048FFF7B1
:1038F00098F80F4C04F11C0600250AE00020207007
:1039000066603F20A0720021E1721C341C36681CE6
:1039100085B2042DF2DB0020207060603F20A07291
:103920000021E17202480349086070BD5000002088
:10393000C40100203000002070B504460026207825
:10394000032801D0002070BDFEF724FD064625891E
:10395000002D02DD2089401E20813046FEF71EFD2D
:103960002846F0E770B505460026DF4800780028B5
:1039700001DD002070BDFEF70DFD0646DB48046842
:10398000006820B1D94800684068D84908603046CE
:10399000FEF704FD5CB103202070258100206060EB
:1039A0003F20E073002121742046FFF7DBFA204618
:1039B000E0E72DE9F0470446884615464FF0000938
:1039C0002078032804D0012028702046BDE8F08725
:1039D000C5480078002803DD0F2028702046F5E751
:1039E000FEF7D8FC8146A07A08B1012700E0002745
:1039F000B8F1000F03D0B8F1010F3ED11BE09FB921
:103A00003F20E0730021217400202070B748006837
:103A1000606000202081B54804604846FEF7BEFC87
:103A200000202870002605E04846FEF7B7FC492034
:103A30002870264628E005E000230122194620468A
:103A4000FFF716FAA07A0028F6D13F20E073002194
:103A5000217400202070A54800686060002020814B
:103A6000A24804604846FEF799FC012F01D1FEF7F9
:103A700094FD00202870002606E04846FEF78EFCE4
:103A800007202870264600BF00BF30469EE72DE97C
:103A9000F04105460E46144600272878032803D037
:103AA00001202070BDE8F0818F480078002802DDF9
:103AB00002202070F6E78E480078002802DD0D20F5
:103AC0002070EFE7FEF766FC07462889002808DD2E
:103AD0002889401E28813846FEF760FC00202070AF
:103AE000E0E78448006890F8300040F00100814928
:103AF000096881F8300000207E49096881F83100AA
:103B00007C480068C6852846FFF7F4F93846FEF77A
:103B100045FCFEF742FDFEF73DFC07467548006890
:103B200090F8310020B1012809D0022806D102E026
:103B3000002020700BE00E20207008E000BF294616
:103B40006C480068FFF77FF90A20207000BF00BFB3
:103B500000206849096881F830006649096881F8E1
:103B6000310064490968C8616249096808623846D9
:103B7000FEF714FC00BF95E72DE9F04104460F461F
:103B800015464FF000082078032804D00120287043
:103B90000020BDE8F081FEF7FDFB8046A07A20B34F
:103BA00000267FB1012F0CD107E002230122002162
:103BB0002046FFF75DF9701CC6B2A07A0028F4D148
:103BC00009E000BF0223012200212046FFF750F93F
:103BD000701CC6B200BF00BF4046FEF7DFFBFEF719
:103BE000DCFC0E2028703046D3E74046FEF7D6FBBB
:103BF0000020287000BFCCE770B50446002520786F
:103C0000032801D0012070BDFEF7C4FB0546A07A51
:103C100060B10023012219462046FFF729F9284602
:103C2000FEF7BCFBFEF7B9FC0020ECE720894FF65D
:103C3000FF71884207D22089401C20812846FEF768
:103C4000ADFB0020DFE72846FEF7A8FB3220DAE7CD
:103C50002DE9F04704460D464FF00009207803286F
:103C600002D00120BDE8F087FEF794FB8146A07AE0
:103C7000A87104F10B07AE1C4FF0000807E017F81D
:103C8000010B06F8010B08F1010000F0FF08B8F184
:103C9000040FF4DB208928804846FEF77FFB0020D4
:103CA000E0E72DE9F04104460E461546002720784E
:103CB000032803D001202870BDE8F081FEF76AFBDD
:103CC0000746002028702089002801DD268105E0B4
:103CD000A07A08B9268101E0492028703846FEF70D
:103CE0005DFB00BFE8E70000410000202C00002041
:103CF00042000020500000202DE9F34F85B0884697
:103D000000200190FEF746FB0190F74850F828008C
:103D100030B10198FEF742FB282007B0BDE8F08FD4
:103D20000598FF2804D1F148006890F8320005900A
:103D3000ED49059851F8205025B90198FEF72EFB62
:103D40002920EAE7012D04D10198FEF727FB432043
:103D5000E3E74FEAE80708F0070003900120B840C6
:103D600000F0FF0901210398814001F0FF0A0021C2
:103D7000DD4A059842F82010104640F8285095F882
:103D8000346095F83600029095F835B0D848805DDB
:103D900010EA0B0F1AD0D648805D20EA0B00D449F8
:103DA00088550846805D28B9D24800780299884332
:103DB000D0490870CF48007840EA0900CD49087022
:103DC000CB48C05D40EA0A00C949C855EC69D4B186
:103DD00004F10B00805D20EA0B0004F10B01885513
:103DE0000846805D18B9A07A02998843A072A07A2B
:103DF00040EA0900A07204F10B00C05D40EA0A002D
:103E000004F10B01C855286A30B3286A049004985D
:103E100004681FE004F10B00805D20EA0B0004F150
:103E20000B0188550846805D18B9A07A029988432D
:103E3000A072A07A40EA0900A07204F10B00C05DF4
:103E400040EA0A0004F10B01C8550498001D0490D3
:103E500004980468002CDDD185F8328085F8347030
:103E6000039885F8330085F8369085F835A00198D9
:103E7000FEF794FAA0480078012801D1FEF78DFBE7
:103E800000204AE72DE9FE4F06460F4690461C46A5
:103E90004FF00009FEF77EFA814698480078002826
:103EA00005DD4846FEF77AFA3C20BDE8FE8F8E48D5
:103EB00050F8240060BB01208B4941F8240048469B
:103EC000FEF76CFA0023424639463046FEF746F9C3
:103ED000824600200090019003460246514602901F
:103EE0002046FFF757F8054635B983480078012882
:103EF0000CD1FEF752FB09E0FEF74CFA8146002098
:103F0000794941F824004846FEF748FA2846CCE7AC
:103F10004846FEF743FA2820C7E712F0010F08D001
:103F200012F0020F05D002E0491E002308C000294C
:103F3000FAD170472DE9F04F85B081468A46934605
:103F40001C46DDE90F78129D00200390FEF722FA4F
:103F500003906A480078002806DD0398FEF71EFAF1
:103F60003C2005B0BDE8F08F5F4850F8240088BBC6
:103F700001205D4941F824000398FEF70FFA2A4614
:103F800041463846FFF7C9FF2B465A465146484638
:103F9000FEF7E4F804901198CDE9008002953A46C6
:103FA00020460E9B0499FEF7F5FF064636B95248A7
:103FB000007801280CD1FEF7F0FA09E0FEF7EAF9E3
:103FC00003900020484941F824000398FEF7E6F9E1
:103FD0003046C6E7FFE70398FEF7E0F92820C0E780
:103FE0002DE9F0410546002744480078002802DD0D
:103FF0004020BDE8F0811F2D01D13E20F9E7FEF7FA
:10400000C9F90746FF2D03D13848006890F83250AF
:10401000354850F8254024B93846FEF7BFF943200B
:10402000E7E7012C04D13846FEF7B8F93D20E0E778
:1040300014F8340F2E49085C6178884321782C4AA3
:10404000505414F834091146085C30B994F836100D
:1040500028480078884327490870E06918B120464D
:10406000E169FEF7F0FE206A18B12046216AFEF7EA
:1040700069FAA66A16B13046FFF7E8F80020E08535
:1040800084F8300084F831001D480078FF2804D2FD
:104090001B480078401C1A4908703846FEF77EF924
:1040A000FEF7D0FEFEF776F907461548007800289F
:1040B00004DD13480078401E114908702046FEF7C1
:1040C0004AF810480078401E0E4908700020064942
:1040D00041F82500A069C8B90020616988610A49D2
:1040E0006069086018E000005006002050000020C1
:1040F00046000020450000204A000020410000202A
:10410000420000204B0000205C000020D4E90501A3
:104110004861D4E905108861E54800686061E448B9
:1041200004603F2084F84C0000214D2001553846A2
:10413000FEF734F9DF480078012801D1FEF72DFAA7
:10414000002056E72DE9F041044600271F2C02D13C
:104150003E20BDE8F081FF2C0BD1FEF71BF907468E
:10416000D548006890F837603846FEF717F93046B2
:10417000EFE7FEF70FF90746D04850F8245025B96D
:104180003846FEF70BF94320E3E7012D04D138460A
:10419000FEF704F93D20DCE73F2085F8370038467C
:1041A000FEF7FCF80020D4E72DE9F04706460F465D
:1041B00014464FF00008C2480078002804DD1120A2
:1041C00020700020BDE8F087FEF7E4F88046FF2E5F
:1041D00003D1B948006890F83260B84850F82650CA
:1041E00035B94046FEF7DAF8432020700020E9E7B1
:1041F000012D06D14046FEF7D1F843202070002063
:10420000E0E705F14C013846FEF716F981464046D5
:10421000FEF7C4F8002020704846D3E72DE9F047A8
:104220000646884614464FF00009A5480078002845
:1042300003DD12202070BDE8F087FEF7ABF8814661
:10424000FF2E03D19C48006890F832609B4850F8DC
:1042500026502DB94846FEF7A1F843202070EAE722
:10426000012D05D14846FEF799F843202070E2E77A
:104270004046FEF721F907460F2F05DD4846FEF7B9
:104280008DF841202070D6E7414605F14C00FEF73D
:10429000D3F84846FEF782F80020207000BFCAE736
:1042A00070B505460026FEF775F80646834850F8B7
:1042B000254024B93046FEF771F8462070BD012C28
:1042C00004D13046FEF76AF84320F7E794F830004F
:1042D00010F0080F2FD014F8300F20F008002070D5
:1042E00014F8300910BBE08DE0B904F13404A07873
:1042F0007449097840EA01007249087020787249CF
:10430000085C617840EA010014F834196E4A505490
:104310003046FEF743F867480078012809D1FEF7D8
:104320003CF906E03046FEF739F802E03046FEF789
:1043300035F80020C2E73046FEF730F84420BDE7EC
:104340002DE9F04707460D464FF0000A002028608F
:104350006860FEF71FF88246FF2F03D156480068B9
:1043600090F83270554850F827402CB95046FEF767
:1043700015F84320BDE8F087012C04D15046FEF724
:104380000DF84320F6E7207C10F0010F04D15046D1
:10439000FEF704F84520EDE70026D4F80C90D4F899
:1043A00008805046FDF7FAFF00E0761C58F8041B21
:1043B0000029FAD0B0002860A9EB060080006860F0
:1043C0000020D7E72DE9F04105464FF00008FDF742
:1043D000E1FF8046FF2D05D13748006890F8325044
:1043E000012608E03448006890F83200A84201D164
:1043F000012600E00026314850F825402CB94046FF
:10440000FDF7CCFF4820BDE8F081012C04D14046E7
:10441000FDF7C4FF4320F6E794F834702A48C05DE6
:1044200094F8351088432849C8550846C05D30B90E
:1044300094F836102348007888432249087094F88D
:10444000300040F0080084F830004046FDF7A6FF39
:10445000012E01D1FEF7A1F80020D4E72DE9F041AB
:1044600005460E460027FDF795FF0746FF2D03D1B1
:104470001148006890F83250104850F825402CB987
:104480003846FDF78BFF2920BDE8F081012C04D1CF
:104490003846FDF783FF4320F6E75C22214630468D
:1044A000FEF76EFD3846FDF779FF0020ECE70000CF
:1044B000540000204A000020500000205006002038
:1044C00041000020450000204600002070B5054650
:1044D000002669480078002800DD70BD002D23DD2E
:1044E000FDF758FF06466548006890F83440644878
:1044F000005D6249096891F83510884360490855A4
:104500000846005D40B95D48006890F836105D4887
:10451000007888435B49087058480068C585304674
:10452000FDF73CFFFEF739F800BFD6E72DE9F0476D
:104530000746884691461D464F480078002802DD10
:104540005520BDE8F0874FF47A7068434FF47A71D4
:10455000B0FBF1F14FF461607843C8EB081200EB57
:104560008200484400EB4002C2EBC01001EBC004E3
:10457000260CA4B22046FFF7A9FF09E04FF4004043
:10458000FFF7A4FF4FF40040FFF7A0FF701E86B2B4
:10459000002EF3DC0020D4E770B5054600261F2D61
:1045A00001DB2A2070BDFDF7F5FE0646364850F8BF
:1045B000254024B93046FDF7F1FE4320F2E7012CF7
:1045C00004D13046FDF7EAFE4320EBE7E08D20B949
:1045D0003046FDF7E3FE5020E4E70020E08594F844
:1045E000300010F0370F09D014F8300F20F03700EA
:1045F000207001206070A4F1300402E0002084F8F3
:10460000310094F8300010F0080F18D104F1340490
:10461000A0781C49097840EA01001A4908702078FE
:104620001749085C617840EA010014F83419144A0B
:1046300050543046FDF7B2FEFDF7AFFF02E03046C2
:10464000FDF7ACFE0020ADE770B50025FDF7A2FE3A
:1046500005460E4804682846FDF7A0FE204670BDBA
:1046600070B504460025FDF795FE05460748046031
:104670002846FDF793FE70BD410000205000002049
:104680004600002045000020500600206400002065
:104690000020FFF767F97549086068E0744A002157
:1046A00072480068FFF7F3F90A230022114610460A
:1046B000FFF73CFF01216F48FCF7ABF9012815D14A
:1046C00002216D48FCF7A5F958B902216A48FCF7A8
:1046D000BAF920216748FCF7B6F9684800F094FB66
:1046E00045E002216448FCF7B0F940E04FF4005186
:1046F0006348FCF78EF9012839D162490968491CE1
:10470000604A08461160C91700EB91718910B0EB3F
:10471000810106D001290DD0022914D0032924D10A
:104720001AE04FF47A715848FDF7C8FA1920574932
:1047300008601BE040F2DC515348FDF7BFFA32201D
:104740005249086012E04FF4FA614F48FDF7B6FA9B
:1047500064204E49086009E040F2DC514A48FDF708
:10476000ADFA32204949086000E000BF00BF95E77C
:1047700017E001214048FCF768F94448008883B2FB
:10478000002211461046FFF7D1FE01213A48FCF7FE
:104790005AF93E48008883B2002211461046FFF7BE
:1047A000C5FEE6E738B5FBF77FFD3949481EB0F195
:1047B000807F00D31BE0481E4FF0E022506150176D
:1047C0000F22002807DA13071D0E324B00F00F04EA
:1047D000241F1D5503E013071C0E2F4B1C5400BF54
:1047E00000204FF0E02290610720106100BF00F030
:1047F000E8F800F0BCF800F00DFB01210820FCF700
:104800002DFB2320ADF8000010208DF803000320BD
:104810008DF8020069461848FCF76AF8212116480D
:10482000FCF711F94FF4165000F036F9FEF77DF958
:1048300005231A4A0021AFF2C700FFF723FB062326
:10484000174A0021AFF2B710FFF71CFB0723154AE8
:1048500000211548FFF716FB0823144A00211448CD
:10486000FFF710FBFEF746FA002038BD700000206D
:104870007400002000080140000C0140808D5B00A6
:104880000010014068000020000400406C0000207F
:104890004019010018ED00E000E400E0D411002010
:1048A00064130020F4140020FD4B0008841600203F
:1048B000E14C0008704700BFFEE700BFFEE700BF05
:1048C000FEE700BFFEE77047704770477047000083
:1048D00008B501210220FCF7CEFA01210420FCF7E3
:1048E000BDFA4020ADF8000018208DF80300032029
:1048F0008DF8020069462148FBF7FAFF0320ADF866
:10490000000069461E48FBF7F3FF08BD10B588B0EC
:104910004FF47A7444F61F60ADF818004720ADF8E4
:1049200014000020ADF81A00ADF8160005A91548CE
:10493000FCF7D0FB6020ADF804000120ADF80600C4
:10494000ADF80A400020ADF80C0001A90D48FCF7B5
:10495000FEFB08210B48FDF749F801210948FDF746
:1049600015F801210748FCF711FF08B010BD10B57C
:10497000FFF7AEFFFFF7CAFF10BD000000080140BF
:10498000000C01400004004008B50120ADF8000013
:1049900004208DF8030003208DF8020069463B488F
:1049A000FBF7A6FF4FF40050ADF8000004208DF88F
:1049B000030003208DF8020069463548FBF798FF95
:1049C00008BD0EB5FFF7E0FF01211520FCF746FA00
:1049D00000210846FCF7A0F80120019000208DF886
:1049E000080008208DF8090001208DF80A0001A8B0
:1049F000FBF79EFE06208DF8000000208DF80100D8
:104A00008DF8020001208DF803006846FBF7F1FCE9
:104A10000D210220FCF780F84FF400500190002097
:104A20008DF8080008208DF8090001208DF80A0093
:104A300001A8FBF77DFE28208DF8000000208DF8EE
:104A400001008DF8020001208DF803006846FBF795
:104A5000D0FC0EBD10B5FEF77EF84FF40050FBF70A
:104A6000DEFE0C480068FFF7C7F8FEF782F810BDBD
:104A700010B5FEF770F80120FBF7D1FE054800687D
:104A8000FFF7BAF8FEF775F810BD00000008014006
:104A9000001001407000002010B592B004460121C2
:104AA00044F20500FCF7DAF901210846FCF7C9F9E0
:104AB0004FF40070ADF8440003208DF84600182034
:104AC0008DF8470011A9C348FBF712FF4FF480602F
:104AD000ADF8440004208DF8470011A9BD48FBF74C
:104AE00007FFBD48FBF7EEFCBC480190BC480290B4
:104AF00010200390642004900020059080200690F0
:104B000000200790089009904FF400500A90002070
:104B10000B9001A9B048FBF777FD01220221AE48B6
:104B2000FBF7A9FDAC481430FBF7CCFCAB48019077
:104B3000AC480290002003904FF480700490002055
:104B400005908020069000200790089009904FF46F
:104B500040500A9000200B9001A99F481430FBF7A9
:104B600053FD01219C481430FBF779FD0D94002082
:104B7000ADF83800ADF83A00ADF83C00ADF84000B3
:104B80000C20ADF83E000DA99448001FFDF71FF959
:104B9000012240F224419148001FFDF7B0F9252081
:104BA0008DF8300000208DF831008DF832000120A2
:104BB0008DF833000CA8FBF71CFC0E208DF830009C
:104BC00000208DF831008DF8320001208DF833007F
:104BD0000CA8FBF70EFC012280218048001FFDF786
:104BE000B3F9012240217D48001FFDF7ADF90121F5
:104BF0007A48001FFDF777F912B010BD08B50025FF
:104C000000240020FEF7AEFE774908604FF4807163
:104C1000744800F05AF94FF48071744800F055F967
:104C20005DE00020724908706A4600216E48006805
:104C3000FEF72DFF6E480078012850D16B480078B0
:104C400050283BD169484079002837D167484078DF
:104C5000482813D0492823D16448C178807801EBD3
:104C6000002505F29C44B4F57A7F06DDB4F5FA6FB1
:104C700003DAA1B25F48FDF721F800BF5B48C178B5
:104C8000807801EB002505F29C44B4F57A7F06DDBF
:104C9000B4F5FA6F03DAA1B25648FDF70FF800BF7A
:104CA00020215548FBF7B5FE20B920215248FBF7DB
:104CB000CAFE03E020215048FBF7C7FE02214E4800
:104CC000FBF7A7FE20B902214B48FBF7BCFE03E02F
:104CD00002214948FBF7B9FE002045490870A0E7CA
:104CE00008B50020FEF73EFE444908604FF480718D
:104CF0003B4800F0EAF81AE06A4600213F480068A5
:104D0000FEF7C5FE3E48007888B93E480188324823
:104D1000FBF7BAFC3B4802883449314800F090F870
:104D200001203749087001212B48FBF798FCE3E785
:104D300010B5FDF710FF40F224412848001FFDF791
:104D4000C3F998B3002124481430FBF788FC2348AA
:104D5000001F0088214800881F481430FBF796FC8C
:104D60002849088008460088C0F5807008800846F9
:104D7000008800280FDD1E48007860B908460288C8
:104D800018491A4800F05CF80120194908701648C3
:104D90000068FEF731FF4FF480710F481430FBF7C5
:104DA00073FC01210C481430FBF759FCFDF7E1FEC0
:104DB00010BD10B5FDF7CFFE4FF40050FBF77DFCA2
:104DC00000210548FBF74BFC00200D490870FDF75A
:104DD000D0FE10BD000801404400024004380140EC
:104DE00088180020881600207800002088170020EE
:104DF0008200002000040040000C01407C000020E4
:104E0000830000208000002000BF0100A0F101000D
:104E1000FBD1704708B501210420FCF71FF82020C2
:104E2000ADF8000010208DF8030003208DF802007B
:104E300069460248FBF75CFD08BD00000010014018
:104E4000032A40F2308010F0030C00F0158011F8B6
:104E5000013BBCF1020F624498BF11F801CB00F88E
:104E6000013B38BF11F8013BA2F1040298BF00F8E2
:104E700001CB38BF00F8013B11F0030300F04A807A
:104E8000083AC0F0088051F8043B083A51F804CBC6
:104E9000A0E80810F5E7121D5CBF51F8043B40F88C
:104EA000043BAFF30080D20724BF11F8013B11F897
:104EB00001CB48BF11F8012B24BF00F8013B00F8DB
:104EC00001CB48BF00F8012B70474FF000020429C6
:104ED000C0F0128010F0030C00F05080CCF1040CF4
:104EE000BCF1020F18BF00F8012BA8BF20F8022B5D
:104EF000A1EB0C0100F042B85FEAC17C24BF00F8CE
:104F0000012B00F8012B48BF00F8012B70477047B8
:104F10007047704710B5203AC0F00B80B1E81850C8
:104F2000203AA0E81850B1E81850A0E81850BFF493
:104F3000F5AF5FEA027C24BFB1E81850A0E8185032
:104F400044BF18C918C0BDE810405FEA827C24BF86
:104F500051F8043B40F8043B08BF7047D20728BF14
:104F600031F8023B48BF11F8012B28BF20F8023B63
:104F700048BF00F8012B70474FF0000200B5134600
:104F800094469646203922BFA0E80C50A0E80C5069
:104F9000B1F12001BFF4F7AF090728BFA0E80C501A
:104FA00048BF0CC05DF804EB890028BF40F8042B13
:104FB00008BF704748BF20F8022B11F0804F18BF80
:104FC00000F8012B7047754600F028F8AE46050042
:104FD0006946534620F00700854618B020B5FBF718
:104FE000F1F9BDE820404FF000064FF000074FF008
:104FF00000084FF0000B21F00701AC46ACE8C009F7
:10500000ACE8C009ACE8C009ACE8C0098D467047FF
:105010000446AFF300802046FBF7D1F80048704704
:105020008819002001491820ABBEFEE726000200C7
:105030007047000001000000785634120A0010008A
:1050400001002000400101001C00140002000500C6
:1050500010001F000100000005001000000000000B
:10506000000004000000040000000400010004002F
:105070000100010001008000010016001000010085
:1050800080000100010020005C00E80301001E0117
:105090006E0E00000100020001000300010002008A
:1050A00001000400010002000100030001000200F1
:1050B00001000500010002000100030001000200E0
:1050C00001000400010002000100030001000200D1
:1050D00001000600010002000100030001000200BF
:1050E00001000400010002000100030001000200B1
:1050F00001000500010002000100030001000200A0
:105100000100040001000200010003000100020090
:10511000010007000100020001000300010002007D
:105120000100040001000200010003000100020070
:10513000010005000100020001000300010002005F
:105140000100040001000200010003000100020050
:10515000010006000100020001000300010002003E
:105160000100040001000200010003000100020030
:10517000010005000100020001000300010002001F
:105180000100040001000200010003000100020010
:1051900001000000B451000800000020840000005D
:1051A0006C0100083852000884000020641F0000D1
:1051B0008801000800A24A0400000000000000006E
:1051C00001020304060708090000000001020304AD
:1051D0000102030406070809020406080000000093
:1051E00000000000000000000000000000000000BF
:1051F00000000000000000000000000000000000AF
:10520000000000000000000000000000000000009E
:10521000000000000000000000000000000000008E
:105220001900000000000000000000000000000065
:08523000000000000000000076
:0400000508000131BD
:00000001FF
